{
  "contractName": "Faucet",
  "abi": [
    {
      "stateMutability": "payable",
      "type": "receive"
    },
    {
      "inputs": [
        {
          "internalType": "address",
          "name": "tokenContractAddress",
          "type": "address"
        }
      ],
      "name": "claimToken",
      "outputs": [],
      "stateMutability": "nonpayable",
      "type": "function"
    },
    {
      "inputs": [],
      "name": "claimCfx",
      "outputs": [],
      "stateMutability": "payable",
      "type": "function"
    }
  ],
  "bytecode": "0x6080604052601e600255670de0b6b3a764000060035534801561002157600080fd5b50610443806100316000396000f3fe60806040526004361061002d5760003560e01c806332f289cf146100395780635f3cc9f71461008a57610034565b3661003457005b600080fd5b34801561004557600080fd5b506100886004803603602081101561005c57600080fd5b81019080803573ffffffffffffffffffffffffffffffffffffffff169060200190929190505050610094565b005b6100926102c0565b005b60008060008373ffffffffffffffffffffffffffffffffffffffff1673ffffffffffffffffffffffffffffffffffffffff16815260200190815260200160002060003373ffffffffffffffffffffffffffffffffffffffff1673ffffffffffffffffffffffffffffffffffffffff1681526020019081526020016000205490506002548142031161018d576040517f08c379a00000000000000000000000000000000000000000000000000000000081526004018080602001828103825260188152602001807f436c61696d20696e74657276616c20746f6f2073686f7274000000000000000081525060200191505060405180910390fd5b426000808473ffffffffffffffffffffffffffffffffffffffff1673ffffffffffffffffffffffffffffffffffffffff16815260200190815260200160002060003373ffffffffffffffffffffffffffffffffffffffff1673ffffffffffffffffffffffffffffffffffffffff168152602001908152602001600020819055508173ffffffffffffffffffffffffffffffffffffffff1663a9059cbb336003546040518363ffffffff1660e01b8152600401808373ffffffffffffffffffffffffffffffffffffffff16815260200182815260200192505050602060405180830381600087803b15801561028057600080fd5b505af1158015610294573d6000803e3d6000fd5b505050506040513d60208110156102aa57600080fd5b8101908080519060200190929190505050505050565b6000600160003373ffffffffffffffffffffffffffffffffffffffff1673ffffffffffffffffffffffffffffffffffffffff1681526020019081526020016000205490506002548142031161037d576040517f08c379a00000000000000000000000000000000000000000000000000000000081526004018080602001828103825260188152602001807f436c61696d20696e74657276616c20746f6f2073686f7274000000000000000081525060200191505060405180910390fd5b42600160003373ffffffffffffffffffffffffffffffffffffffff1673ffffffffffffffffffffffffffffffffffffffff168152602001908152602001600020819055503373ffffffffffffffffffffffffffffffffffffffff166108fc6003549081150290604051600060405180830381858888f19350505050158015610409573d6000803e3d6000fd5b505056fea26469706673582212205165ae0926fb73fa692fa767bffdef8a6da08334e69d809939676893bef1fe7264736f6c634300060c0033",
  "immutableReferences": {},
  "source": "// SPDX-License-Identifier: MIT\npragma solidity >=0.6.2 <0.8.0;\n\nimport \"@openzeppelin/contracts/token/ERC20/IERC20.sol\";\n\ncontract Faucet {\n    // lastTokenClaimRecord[tokenContractAddress][msg.sender] = lastClaimTimestamp\n    mapping(address => mapping(address => uint256)) lastTokenClaimRecord;\n    // last \n    mapping(address => uint256) lastCfxClaimRecord;\n\n    uint256 internal interval = 30 seconds;\n\n    uint256 defaultAmount = 1e18;\n\n    // constructor(uint _interval, uint256 _defaultAmount) public {\n    //     interval = _interval;\n    //     defaultAmount = _defaultAmount;\n    // }\n\n    // function nextTokenClaim(address tokenContractAddress) public view {\n\n    // }\n\n    function claimToken(address tokenContractAddress) public {\n        uint256 lastTs = lastTokenClaimRecord[tokenContractAddress][msg.sender];\n        require(block.timestamp - lastTs > interval, \"Claim interval too short\");\n        lastTokenClaimRecord[tokenContractAddress][msg.sender] = block.timestamp;\n        IERC20(tokenContractAddress).transfer(msg.sender, defaultAmount);\n    }\n\n    function claimCfx() public payable{\n        uint256 lastTs = lastCfxClaimRecord[msg.sender];\n        require(block.timestamp - lastTs > interval, \"Claim interval too short\");\n        lastCfxClaimRecord[msg.sender] = block.timestamp;\n        // will revert if there is no enough cfx balance\n        msg.sender.transfer(defaultAmount);\n    }\n\n    receive() external payable {\n        \n    }\n}",
  "sourcePath": "/Users/zhangwenda/Documents/code/ConfluxTestnetFaucet/contracts/Faucet.sol",
  "compiler": {
    "name": "solc",
    "version": "0.6.12+commit.27d51765.Linux.g++"
  },
  "schemaVersion": "3.2.0",
  "updatedAt": "2021-05-19T13:38:50.703Z",
  "devdoc": {
    "kind": "dev",
    "methods": {},
    "version": 1
  },
  "userdoc": {
    "kind": "user",
    "methods": {},
    "version": 1
  }
}